{
  "contractName": "Base",
  "abi": [
    {
      "inputs": [
        {
          "internalType": "bytes32",
          "name": "_address",
          "type": "bytes32"
        }
      ],
      "name": "bytes32ToAddress",
      "outputs": [
        {
          "internalType": "address",
          "name": "",
          "type": "address"
        }
      ],
      "stateMutability": "pure",
      "type": "function"
    },
    {
      "inputs": [
        {
          "internalType": "address",
          "name": "_address",
          "type": "address"
        }
      ],
      "name": "addressToBytes32",
      "outputs": [
        {
          "internalType": "bytes32",
          "name": "",
          "type": "bytes32"
        }
      ],
      "stateMutability": "pure",
      "type": "function"
    }
  ],
  "bytecode": "0x608060405234801561001057600080fd5b50610167806100206000396000f3fe608060405234801561001057600080fd5b50600436106100365760003560e01c80635ced058e1461003b57806382c947b7146100a9575b600080fd5b6100676004803603602081101561005157600080fd5b8101908080359060200190929190505050610101565b604051808273ffffffffffffffffffffffffffffffffffffffff1673ffffffffffffffffffffffffffffffffffffffff16815260200191505060405180910390f35b6100eb600480360360208110156100bf57600080fd5b81019080803573ffffffffffffffffffffffffffffffffffffffff16906020019092919050505061010e565b6040518082815260200191505060405180910390f35b60008160001c9050919050565b60008173ffffffffffffffffffffffffffffffffffffffff1660001b905091905056fea26469706673582212202862a3237b1474996561acb204bc199a982732431fc771c6040745dc84bd1d6464736f6c63430006010033",
  "source": "pragma solidity >=0.4.22;\r\n\r\ncontract Base {\r\n\r\n    function bytes32ToAddress(bytes32 _address) public pure returns(address) {\r\n        return address(uint160(uint(_address)));\r\n    }\r\n\r\n    function addressToBytes32(address _address) public pure returns(bytes32) {\r\n        return bytes32(uint(uint160(_address)));\r\n    }\r\n}\r\n\r\n",
  "sourcePath": "E:\\Dev\\pmDapp\\truffle\\contracts\\Base.sol",
  "compiler": {
    "name": "solc",
    "version": "0.6.1+commit.e6f7d5a4.Emscripten.clang"
  },
  "schemaVersion": "3.1.0",
  "updatedAt": "2020-05-22T18:06:17.207Z",
  "devdoc": {
    "methods": {}
  },
  "userdoc": {
    "methods": {}
  }
}