{
  "contractName": "ManagementConsole",
  "abi": [
    {
      "anonymous": false,
      "inputs": [
        {
          "indexed": true,
          "internalType": "bytes32",
          "name": "_stakeholder",
          "type": "bytes32"
        },
        {
          "indexed": true,
          "internalType": "bytes32",
          "name": "_thesisHash",
          "type": "bytes32"
        }
      ],
      "name": "LogAssignTo",
      "type": "event"
    },
    {
      "anonymous": false,
      "inputs": [
        {
          "indexed": true,
          "internalType": "bytes32",
          "name": "department",
          "type": "bytes32"
        },
        {
          "indexed": false,
          "internalType": "string",
          "name": "name",
          "type": "string"
        },
        {
          "indexed": true,
          "internalType": "uint256",
          "name": "id",
          "type": "uint256"
        }
      ],
      "name": "LogCreateDepartment",
      "type": "event"
    },
    {
      "anonymous": false,
      "inputs": [
        {
          "indexed": true,
          "internalType": "bytes32",
          "name": "department",
          "type": "bytes32"
        },
        {
          "indexed": true,
          "internalType": "bytes32",
          "name": "secretariat",
          "type": "bytes32"
        },
        {
          "indexed": false,
          "internalType": "uint256",
          "name": "index",
          "type": "uint256"
        }
      ],
      "name": "LogCreateSecretariat",
      "type": "event"
    },
    {
      "anonymous": false,
      "inputs": [
        {
          "indexed": true,
          "internalType": "bytes32",
          "name": "department",
          "type": "bytes32"
        },
        {
          "indexed": true,
          "internalType": "bytes32",
          "name": "secretariat",
          "type": "bytes32"
        },
        {
          "indexed": false,
          "internalType": "bytes32",
          "name": "author",
          "type": "bytes32"
        },
        {
          "indexed": false,
          "internalType": "bytes32",
          "name": "supervisor",
          "type": "bytes32"
        },
        {
          "indexed": false,
          "internalType": "bytes32",
          "name": "thesisHash",
          "type": "bytes32"
        },
        {
          "indexed": false,
          "internalType": "uint256",
          "name": "index",
          "type": "uint256"
        }
      ],
      "name": "LogCreateThesis",
      "type": "event"
    },
    {
      "anonymous": false,
      "inputs": [
        {
          "indexed": true,
          "internalType": "bytes32",
          "name": "thesis",
          "type": "bytes32"
        },
        {
          "indexed": false,
          "internalType": "string",
          "name": "action",
          "type": "string"
        }
      ],
      "name": "LogFinalizeThesis",
      "type": "event"
    },
    {
      "anonymous": false,
      "inputs": [
        {
          "indexed": true,
          "internalType": "bytes32",
          "name": "sender",
          "type": "bytes32"
        },
        {
          "indexed": true,
          "internalType": "bytes32",
          "name": "secretariat",
          "type": "bytes32"
        }
      ],
      "name": "LogRemoveSecretariat",
      "type": "event"
    },
    {
      "anonymous": false,
      "inputs": [
        {
          "indexed": false,
          "internalType": "uint256",
          "name": "departmentThesisCount",
          "type": "uint256"
        },
        {
          "indexed": false,
          "internalType": "uint256",
          "name": "thesisIndex",
          "type": "uint256"
        }
      ],
      "name": "LogUpdateDepartmentNewThesis",
      "type": "event"
    },
    {
      "anonymous": false,
      "inputs": [
        {
          "indexed": true,
          "internalType": "bytes32",
          "name": "thesis",
          "type": "bytes32"
        },
        {
          "indexed": false,
          "internalType": "string",
          "name": "action",
          "type": "string"
        }
      ],
      "name": "LogUpdateThesis",
      "type": "event"
    },
    {
      "anonymous": false,
      "inputs": [
        {
          "indexed": true,
          "internalType": "address",
          "name": "implementation",
          "type": "address"
        }
      ],
      "name": "LogUpgrade",
      "type": "event"
    },
    {
      "anonymous": false,
      "inputs": [
        {
          "indexed": false,
          "internalType": "address",
          "name": "previousOwner",
          "type": "address"
        },
        {
          "indexed": false,
          "internalType": "address",
          "name": "newOwner",
          "type": "address"
        }
      ],
      "name": "ProxyOwnershipTransferred",
      "type": "event"
    },
    {
      "stateMutability": "nonpayable",
      "type": "fallback"
    },
    {
      "inputs": [
        {
          "internalType": "address",
          "name": "_address",
          "type": "address"
        }
      ],
      "name": "addressToBytes32",
      "outputs": [
        {
          "internalType": "bytes32",
          "name": "",
          "type": "bytes32"
        }
      ],
      "stateMutability": "pure",
      "type": "function",
      "constant": true
    },
    {
      "inputs": [
        {
          "internalType": "bytes32",
          "name": "_address",
          "type": "bytes32"
        }
      ],
      "name": "bytes32ToAddress",
      "outputs": [
        {
          "internalType": "address",
          "name": "",
          "type": "address"
        }
      ],
      "stateMutability": "pure",
      "type": "function",
      "constant": true
    },
    {
      "inputs": [],
      "name": "implementation",
      "outputs": [
        {
          "internalType": "address",
          "name": "_implementation",
          "type": "address"
        }
      ],
      "stateMutability": "view",
      "type": "function",
      "constant": true
    },
    {
      "inputs": [],
      "name": "isOwner",
      "outputs": [
        {
          "internalType": "bool",
          "name": "",
          "type": "bool"
        }
      ],
      "stateMutability": "view",
      "type": "function",
      "constant": true
    },
    {
      "inputs": [],
      "name": "proxyOwner",
      "outputs": [
        {
          "internalType": "address",
          "name": "owner",
          "type": "address"
        }
      ],
      "stateMutability": "view",
      "type": "function",
      "constant": true
    },
    {
      "inputs": [
        {
          "internalType": "address",
          "name": "newOwner",
          "type": "address"
        }
      ],
      "name": "transferProxyOwnership",
      "outputs": [],
      "stateMutability": "nonpayable",
      "type": "function"
    },
    {
      "inputs": [
        {
          "internalType": "address",
          "name": "implementation",
          "type": "address"
        }
      ],
      "name": "upgradeTo",
      "outputs": [],
      "stateMutability": "nonpayable",
      "type": "function"
    },
    {
      "inputs": [
        {
          "internalType": "bytes32",
          "name": "_address",
          "type": "bytes32"
        },
        {
          "internalType": "string",
          "name": "_name",
          "type": "string"
        }
      ],
      "name": "createDepartment",
      "outputs": [],
      "stateMutability": "nonpayable",
      "type": "function"
    },
    {
      "inputs": [
        {
          "internalType": "bytes32",
          "name": "_address",
          "type": "bytes32"
        }
      ],
      "name": "createSecretariat",
      "outputs": [],
      "stateMutability": "nonpayable",
      "type": "function"
    },
    {
      "inputs": [
        {
          "internalType": "bytes32",
          "name": "_secretariat",
          "type": "bytes32"
        }
      ],
      "name": "removeSecretariat",
      "outputs": [],
      "stateMutability": "nonpayable",
      "type": "function"
    },
    {
      "inputs": [],
      "name": "getDepartmentList",
      "outputs": [
        {
          "internalType": "bytes32[]",
          "name": "departments",
          "type": "bytes32[]"
        }
      ],
      "stateMutability": "view",
      "type": "function",
      "constant": true
    },
    {
      "inputs": [
        {
          "internalType": "bytes32",
          "name": "_department",
          "type": "bytes32"
        }
      ],
      "name": "getDepartmentDetails",
      "outputs": [
        {
          "internalType": "uint256",
          "name": "departmentID",
          "type": "uint256"
        },
        {
          "internalType": "string",
          "name": "departmentName",
          "type": "string"
        },
        {
          "internalType": "uint256",
          "name": "secretariatCounter",
          "type": "uint256"
        },
        {
          "internalType": "uint256",
          "name": "thesisCounter",
          "type": "uint256"
        }
      ],
      "stateMutability": "view",
      "type": "function",
      "constant": true
    },
    {
      "inputs": [
        {
          "internalType": "bytes32",
          "name": "_department",
          "type": "bytes32"
        }
      ],
      "name": "getSecretariatList",
      "outputs": [
        {
          "internalType": "bytes32[]",
          "name": "secretariats",
          "type": "bytes32[]"
        }
      ],
      "stateMutability": "view",
      "type": "function",
      "constant": true
    },
    {
      "inputs": [
        {
          "internalType": "bytes32",
          "name": "_author",
          "type": "bytes32"
        },
        {
          "internalType": "bytes32",
          "name": "_supervisor",
          "type": "bytes32"
        },
        {
          "internalType": "uint256",
          "name": "_registrationDate",
          "type": "uint256"
        },
        {
          "internalType": "string",
          "name": "_title",
          "type": "string"
        },
        {
          "internalType": "string",
          "name": "_course",
          "type": "string"
        }
      ],
      "name": "createThesis",
      "outputs": [],
      "stateMutability": "nonpayable",
      "type": "function"
    },
    {
      "inputs": [
        {
          "internalType": "bytes32",
          "name": "_thesisHash",
          "type": "bytes32"
        },
        {
          "internalType": "uint256",
          "name": "_publicationDate",
          "type": "uint256"
        },
        {
          "internalType": "uint256",
          "name": "_embargoPeriod",
          "type": "uint256"
        },
        {
          "internalType": "bytes",
          "name": "_fileUrl",
          "type": "bytes"
        }
      ],
      "name": "setThesisArguments",
      "outputs": [],
      "stateMutability": "nonpayable",
      "type": "function"
    },
    {
      "inputs": [
        {
          "internalType": "bytes32",
          "name": "_secretariat",
          "type": "bytes32"
        }
      ],
      "name": "getDepartmentOfSecretariat",
      "outputs": [
        {
          "internalType": "bytes32",
          "name": "department",
          "type": "bytes32"
        }
      ],
      "stateMutability": "view",
      "type": "function",
      "constant": true
    },
    {
      "inputs": [
        {
          "internalType": "bytes32",
          "name": "_thesisHash",
          "type": "bytes32"
        },
        {
          "internalType": "bool",
          "name": "_permission",
          "type": "bool"
        }
      ],
      "name": "setPermission",
      "outputs": [],
      "stateMutability": "nonpayable",
      "type": "function"
    },
    {
      "inputs": [
        {
          "internalType": "bytes32",
          "name": "_thesisHash",
          "type": "bytes32"
        }
      ],
      "name": "getThesisPermissionStatus",
      "outputs": [
        {
          "internalType": "bool",
          "name": "secretariat",
          "type": "bool"
        },
        {
          "internalType": "bool",
          "name": "author",
          "type": "bool"
        },
        {
          "internalType": "bool",
          "name": "supervisor",
          "type": "bool"
        }
      ],
      "stateMutability": "view",
      "type": "function",
      "constant": true
    },
    {
      "inputs": [
        {
          "internalType": "bytes32",
          "name": "_thesisHash",
          "type": "bytes32"
        }
      ],
      "name": "getThesisPermission",
      "outputs": [
        {
          "internalType": "bool",
          "name": "",
          "type": "bool"
        }
      ],
      "stateMutability": "view",
      "type": "function",
      "constant": true
    },
    {
      "inputs": [
        {
          "internalType": "bytes32",
          "name": "_thesisHash",
          "type": "bytes32"
        }
      ],
      "name": "thesisCanBeFinalized",
      "outputs": [
        {
          "internalType": "bool",
          "name": "",
          "type": "bool"
        }
      ],
      "stateMutability": "view",
      "type": "function",
      "constant": true
    },
    {
      "inputs": [
        {
          "internalType": "bytes32",
          "name": "_thesisHash",
          "type": "bytes32"
        }
      ],
      "name": "finalizeThesis",
      "outputs": [
        {
          "internalType": "bool",
          "name": "success",
          "type": "bool"
        }
      ],
      "stateMutability": "nonpayable",
      "type": "function"
    },
    {
      "inputs": [
        {
          "internalType": "bytes32",
          "name": "_thesisHash",
          "type": "bytes32"
        }
      ],
      "name": "getFileUrl",
      "outputs": [
        {
          "internalType": "bytes",
          "name": "",
          "type": "bytes"
        }
      ],
      "stateMutability": "view",
      "type": "function",
      "constant": true
    },
    {
      "inputs": [
        {
          "internalType": "bytes32",
          "name": "_thesisHash",
          "type": "bytes32"
        },
        {
          "internalType": "bytes32",
          "name": "_messageHash",
          "type": "bytes32"
        },
        {
          "internalType": "bytes",
          "name": "_signature",
          "type": "bytes"
        }
      ],
      "name": "verifySecretariatSignature",
      "outputs": [
        {
          "internalType": "bool",
          "name": "",
          "type": "bool"
        }
      ],
      "stateMutability": "view",
      "type": "function",
      "constant": true
    },
    {
      "inputs": [
        {
          "internalType": "bytes32",
          "name": "_messageHash",
          "type": "bytes32"
        },
        {
          "internalType": "bytes",
          "name": "_signature",
          "type": "bytes"
        }
      ],
      "name": "recoverSigner",
      "outputs": [
        {
          "internalType": "address",
          "name": "",
          "type": "address"
        }
      ],
      "stateMutability": "pure",
      "type": "function",
      "constant": true
    },
    {
      "inputs": [
        {
          "internalType": "bytes32",
          "name": "_department",
          "type": "bytes32"
        }
      ],
      "name": "getThesisOfDepartment",
      "outputs": [
        {
          "internalType": "bytes32[]",
          "name": "thesisList",
          "type": "bytes32[]"
        }
      ],
      "stateMutability": "view",
      "type": "function",
      "constant": true
    },
    {
      "inputs": [
        {
          "internalType": "bytes32",
          "name": "_thesisHash",
          "type": "bytes32"
        }
      ],
      "name": "getThesis",
      "outputs": [
        {
          "internalType": "bytes32",
          "name": "department",
          "type": "bytes32"
        },
        {
          "internalType": "bytes32",
          "name": "secretariat",
          "type": "bytes32"
        },
        {
          "internalType": "bytes32",
          "name": "author",
          "type": "bytes32"
        },
        {
          "internalType": "bytes32",
          "name": "supervisor",
          "type": "bytes32"
        },
        {
          "internalType": "uint256",
          "name": "registrationDate",
          "type": "uint256"
        },
        {
          "internalType": "uint256",
          "name": "publicationDate",
          "type": "uint256"
        }
      ],
      "stateMutability": "view",
      "type": "function",
      "constant": true
    },
    {
      "inputs": [
        {
          "internalType": "bytes32",
          "name": "_stakeholder",
          "type": "bytes32"
        }
      ],
      "name": "getThesisOfStakeholder",
      "outputs": [
        {
          "internalType": "bytes32[]",
          "name": "thesisList",
          "type": "bytes32[]"
        }
      ],
      "stateMutability": "view",
      "type": "function",
      "constant": true
    },
    {
      "inputs": [
        {
          "internalType": "bytes32",
          "name": "_thesisHash",
          "type": "bytes32"
        }
      ],
      "name": "isStakeholderOfThesis",
      "outputs": [
        {
          "internalType": "bool",
          "name": "",
          "type": "bool"
        }
      ],
      "stateMutability": "view",
      "type": "function",
      "constant": true
    },
    {
      "inputs": [
        {
          "internalType": "bytes32",
          "name": "_sender",
          "type": "bytes32"
        }
      ],
      "name": "isStakeholder",
      "outputs": [
        {
          "internalType": "bool",
          "name": "",
          "type": "bool"
        }
      ],
      "stateMutability": "view",
      "type": "function",
      "constant": true
    },
    {
      "inputs": [
        {
          "internalType": "bytes32",
          "name": "_department",
          "type": "bytes32"
        }
      ],
      "name": "isDepartment",
      "outputs": [
        {
          "internalType": "bool",
          "name": "",
          "type": "bool"
        }
      ],
      "stateMutability": "view",
      "type": "function",
      "constant": true
    },
    {
      "inputs": [
        {
          "internalType": "bytes32",
          "name": "_secretariat",
          "type": "bytes32"
        }
      ],
      "name": "isSecretariat",
      "outputs": [
        {
          "internalType": "bool",
          "name": "",
          "type": "bool"
        }
      ],
      "stateMutability": "view",
      "type": "function",
      "constant": true
    }
  ],
  "bytecode": "0x60806040526100133361001860201b60201c565b610059565b600060405180807f5468657369734d616e616765722e636f6e74726163742e6f776e657200000000815250601c019050604051809103902090508181555050565b61399680620000696000396000f3fe608060405234801561001057600080fd5b50600436106101e95760003560e01c806388ad96021161010f578063d54705fd116100a2578063eae5ec3011610071578063eae5ec3014610dc5578063ef9c303214610e21578063efec5cfa14610e67578063f1739cae14610e95576101ea565b8063d54705fd14610b6b578063e7586bc014610bee578063e8d348c414610cda578063ea6746f714610d20576101ea565b8063a9a09952116100de578063a9a09952146109a4578063b043fed814610a60578063c2db9d2714610ae3578063c7aa3ef314610b25576101ea565b806388ad9602146107905780638e6bf5d4146107d65780638f32d59b1461087d57806397aba7f91461089f576101ea565b80633659cfe6116101875780637357fd18116101565780637357fd1814610615578063796bc55f146106ac57806382c947b7146106f257806384dad3201461074a576101ea565b80633659cfe6146104965780635a26ab97146104da5780635c60da1b1461055d5780635ced058e146105a7576101ea565b80630cee6943116101c35780630cee6943146103215780631a2667d9146103865780631c021062146103e55780632306c3fb14610413576101ea565b8063025313a2146102575780630618db20146102a15780630c3efa06146102e7576101ea565b5b60006101f4610ed9565b9050600073ffffffffffffffffffffffffffffffffffffffff168173ffffffffffffffffffffffffffffffffffffffff16141561023057600080fd5b60405136600082376000803683855af43d806000843e8160008114610253578184f35b8184fd5b61025f610eff565b604051808273ffffffffffffffffffffffffffffffffffffffff1673ffffffffffffffffffffffffffffffffffffffff16815260200191505060405180910390f35b6102cd600480360360208110156102b757600080fd5b8101908080359060200190929190505050610f42565b604051808215151515815260200191505060405180910390f35b61031f600480360360408110156102fd57600080fd5b8101908080359060200190929190803515159060200190929190505050610f76565b005b61034d6004803603602081101561033757600080fd5b8101908080359060200190929190505050611124565b60405180878152602001868152602001858152602001848152602001838152602001828152602001965050505050505060405180910390f35b61038e611207565b6040518080602001828103825283818151815260200191508051906020019060200280838360005b838110156103d15780820151818401526020810190506103b6565b505050509050019250505060405180910390f35b610411600480360360208110156103fb57600080fd5b810190808035906020019092919050505061128d565b005b6104946004803603604081101561042957600080fd5b81019080803590602001909291908035906020019064010000000081111561045057600080fd5b82018360208201111561046257600080fd5b8035906020019184600183028401116401000000008311171561048457600080fd5b9091929391929390505050611455565b005b6104d8600480360360208110156104ac57600080fd5b81019080803573ffffffffffffffffffffffffffffffffffffffff1690602001909291905050506116ab565b005b610506600480360360208110156104f057600080fd5b8101908080359060200190929190505050611731565b6040518080602001828103825283818151815260200191508051906020019060200280838360005b8381101561054957808201518184015260208101905061052e565b505050509050019250505060405180910390f35b610565610ed9565b604051808273ffffffffffffffffffffffffffffffffffffffff1673ffffffffffffffffffffffffffffffffffffffff16815260200191505060405180910390f35b6105d3600480360360208110156105bd57600080fd5b8101908080359060200190929190505050611854565b604051808273ffffffffffffffffffffffffffffffffffffffff1673ffffffffffffffffffffffffffffffffffffffff16815260200191505060405180910390f35b6106aa6004803603608081101561062b57600080fd5b810190808035906020019092919080359060200190929190803590602001909291908035906020019064010000000081111561066657600080fd5b82018360208201111561067857600080fd5b8035906020019184600183028401116401000000008311171561069a57600080fd5b9091929391929390505050611861565b005b6106d8600480360360208110156106c257600080fd5b8101908080359060200190929190505050611ae1565b604051808215151515815260200191505060405180910390f35b6107346004803603602081101561070857600080fd5b81019080803573ffffffffffffffffffffffffffffffffffffffff169060200190929190505050611b34565b6040518082815260200191505060405180910390f35b6107766004803603602081101561076057600080fd5b8101908080359060200190929190505050611b57565b604051808215151515815260200191505060405180910390f35b6107bc600480360360208110156107a657600080fd5b8101908080359060200190929190505050611e2a565b604051808215151515815260200191505060405180910390f35b610802600480360360208110156107ec57600080fd5b8101908080359060200190929190505050611edd565b6040518080602001828103825283818151815260200191508051906020019080838360005b83811015610842578082015181840152602081019050610827565b50505050905090810190601f16801561086f5780820380516001836020036101000a031916815260200191505b509250505060405180910390f35b610885612046565b604051808215151515815260200191505060405180910390f35b610962600480360360408110156108b557600080fd5b8101908080359060200190929190803590602001906401000000008111156108dc57600080fd5b8201836020820111156108ee57600080fd5b8035906020019184600183028401116401000000008311171561091057600080fd5b91908080601f016020809104026020016040519081016040528093929190818152602001838380828437600081840152601f19601f820116905080830192505050505050509192919290505050612083565b604051808273ffffffffffffffffffffffffffffffffffffffff1673ffffffffffffffffffffffffffffffffffffffff16815260200191505060405180910390f35b6109d0600480360360208110156109ba57600080fd5b81019080803590602001909291905050506121ca565b6040518085815260200180602001848152602001838152602001828103825285818151815260200191508051906020019080838360005b83811015610a22578082015181840152602081019050610a07565b50505050905090810190601f168015610a4f5780820380516001836020036101000a031916815260200191505b509550505050505060405180910390f35b610a8c60048036036020811015610a7657600080fd5b8101908080359060200190929190505050612305565b6040518080602001828103825283818151815260200191508051906020019060200280838360005b83811015610acf578082015181840152602081019050610ab4565b505050509050019250505060405180910390f35b610b0f60048036036020811015610af957600080fd5b8101908080359060200190929190505050612478565b6040518082815260200191505060405180910390f35b610b5160048036036020811015610b3b57600080fd5b8101908080359060200190929190505050612526565b604051808215151515815260200191505060405180910390f35b610b9760048036036020811015610b8157600080fd5b810190808035906020019092919050505061255c565b6040518080602001828103825283818151815260200191508051906020019060200280838360005b83811015610bda578082015181840152602081019050610bbf565b505050509050019250505060405180910390f35b610cd8600480360360a0811015610c0457600080fd5b8101908080359060200190929190803590602001909291908035906020019092919080359060200190640100000000811115610c3f57600080fd5b820183602082011115610c5157600080fd5b80359060200191846001830284011164010000000083111715610c7357600080fd5b909192939192939080359060200190640100000000811115610c9457600080fd5b820183602082011115610ca657600080fd5b80359060200191846001830284011164010000000083111715610cc857600080fd5b90919293919293905050506126c9565b005b610d0660048036036020811015610cf057600080fd5b810190808035906020019092919050505061298e565b604051808215151515815260200191505060405180910390f35b610dab60048036036060811015610d3657600080fd5b81019080803590602001909291908035906020019092919080359060200190640100000000811115610d6757600080fd5b820183602082011115610d7957600080fd5b80359060200191846001830284011164010000000083111715610d9b57600080fd5b90919293919293905050506129b0565b604051808215151515815260200191505060405180910390f35b610df160048036036020811015610ddb57600080fd5b8101908080359060200190929190505050612b68565b60405180841515151581526020018315151515815260200182151515158152602001935050505060405180910390f35b610e4d60048036036020811015610e3757600080fd5b8101908080359060200190929190505050612c24565b604051808215151515815260200191505060405180910390f35b610e9360048036036020811015610e7d57600080fd5b8101908080359060200190929190505050612c46565b005b610ed760048036036020811015610eab57600080fd5b81019080803573ffffffffffffffffffffffffffffffffffffffff169060200190929190505050612e69565b005b60008060405180806138e760229139602201905060405180910390209050805491505090565b60008060405180807f5468657369734d616e616765722e636f6e74726163742e6f776e657200000000815250601c01905060405180910390209050805491505090565b6000600115156005600084815260200190815260200160002060000160009054906101000a900460ff161515149050919050565b81610f92600a6000838152602001908152602001600020612fc7565b611004576040517f08c379a00000000000000000000000000000000000000000000000000000000081526004018080602001828103825260168152602001807f546865736973206e6f7420726567697374657265642e0000000000000000000081525060200191505060405180910390fd5b8261100e81611ae1565b611080576040517f08c379a00000000000000000000000000000000000000000000000000000000081526004018080602001828103825260208152602001807f55736572206973206e6f7420612076616c6964207374616b65686f6c6465722e81525060200191505060405180910390fd5b600061108b33611b34565b90506110b48185600a6000898152602001908152602001600020612fd79092919063ffffffff16565b807fc1bf87d15ea4789da56e78b285d960c23f6d082acf0956484a4065077ea5196260405180806020018281038252600d8152602001807f7365745065726d697373696f6e0000000000000000000000000000000000000081525060200191505060405180910390a25050505050565b60008060008060008086611149600a6000838152602001908152602001600020612fc7565b6111bb576040517f08c379a00000000000000000000000000000000000000000000000000000000081526004018080602001828103825260168152602001807f546865736973206e6f7420726567697374657265642e0000000000000000000081525060200191505060405180910390fd5b6000600a60008a81526020019081526020016000209050806000015481600101548260020154836003015484600401548560050154975097509750975097509750505091939550919395565b606060005460405190808252806020026020018201604052801561123a5781602001602082028038833980820191505090505b50905060008090505b60005481101561128957600160006001830181526020019081526020016000205482828151811061127057fe5b6020026020010181815250508080600101915050611243565b5090565b61129e61129933611b34565b612c24565b611310576040517f08c379a000000000000000000000000000000000000000000000000000000000815260040180806020018281038252601b8152602001807f4465706172746d656e7420646f6573206e6f74206578697374732e000000000081525060200191505060405180910390fd5b61131981610f42565b8015611355575061132933611b34565b600160006005600085815260200190815260200160002060020154815260200190815260200160002054145b6113aa576040517f08c379a000000000000000000000000000000000000000000000000000000000815260040180806020018281038252603581526020018061392c6035913960400191505060405180910390fd5b6000600260006113b933611b34565b81526020019081526020016000209050600060056000848152602001908152602001600020905060008160000160006101000a81548160ff02191690831515021790555081600401600082600101548152602001908152602001600020600090558261142433611b34565b7f190a0a513be6231d437122a9126dc62d3cce8f44def6b48066538ac26dcd4e0160405160405180910390a3505050565b61145d612046565b6114cf576040517f08c379a00000000000000000000000000000000000000000000000000000000081526004018080602001828103825260168152602001807f55736572206973206e6f7420746865206f776e65722e0000000000000000000081525060200191505060405180910390fd5b600060026000858152602001908152602001600020600001541461153e576040517f08c379a00000000000000000000000000000000000000000000000000000000081526004018080602001828103825260228152602001806138a16022913960400191505060405180910390fd5b611546613662565b60405180608001604052806000808154600101919050819055815260200184848080601f016020809104026020016040519081016040528093929190818152602001838380828437600081840152601f19601f820116905080830192505050505050508152602001600081526020016000815250905080600260008681526020019081526020016000206000820151816000015560208201518160010190805190602001906115f692919061368a565b506040820151816002015560608201518160030155905050836001600083600001518152602001908152602001600020819055506002600085815260200190815260200160002060000154847fe178c0e93191708689a63e184ce7c7f01f6d6dee00bd349549d7eaa120806bc5858560405180806020018281038252848482818152602001925080828437600081840152601f19601f820116905080830192505050935050505060405180910390a350505050565b6116b3612046565b611725576040517f08c379a00000000000000000000000000000000000000000000000000000000081526004018080602001828103825260168152602001807f55736572206973206e6f7420746865206f776e65722e0000000000000000000081525060200191505060405180910390fd5b61172e81613067565b50565b606061173c82612c24565b611791576040517f08c379a00000000000000000000000000000000000000000000000000000000081526004018080602001828103825260268152602001806137d36026913960400191505060405180910390fd5b60026000838152602001908152602001600020600301546040519080825280602002602001820160405280156117d65781602001602082028038833980820191505090505b50905060008090505b815181101561184e576000600260008581526020019081526020016000206005016000838152602001908152602001600020549050600960008281526020019081526020016000205483838151811061183457fe5b6020026020010181815250505080806001019150506117df565b50919050565b60008160001c9050919050565b61187261186d33611b34565b610f42565b6118e4576040517f08c379a00000000000000000000000000000000000000000000000000000000081526004018080602001828103825260128152602001807f4e6f7420612073656372657461726961742e000000000000000000000000000081525060200191505060405180910390fd5b84611900600a6000838152602001908152602001600020612fc7565b611972576040517f08c379a00000000000000000000000000000000000000000000000000000000081526004018080602001828103825260168152602001807f546865736973206e6f7420726567697374657265642e0000000000000000000081525060200191505060405180910390fd5b7f30783000000000000000000000000000000000000000000000000000000000006119a461199f33611b34565b612478565b14156119fb576040517f08c379a00000000000000000000000000000000000000000000000000000000081526004018080602001828103825260248152602001806138c36024913960400191505060405180910390fd5b611a68858585858080601f016020809104026020016040519081016040528093929190818152602001838380828437600081840152601f19601f82011690508083019250505050505050600a60008b81526020019081526020016000206130fc909392919063ffffffff16565b611a7130611b34565b7fc1bf87d15ea4789da56e78b285d960c23f6d082acf0956484a4065077ea5196260405180806020018281038252600c8152602001807f736574417267756d656e7473000000000000000000000000000000000000000081525060200191505060405180910390a2505050505050565b600080611aed33611b34565b9050611af88161298e565b8015611b2c575060011515611b2882600a600087815260200190815260200160002061315390919063ffffffff16565b1515145b915050919050565b60008173ffffffffffffffffffffffffffffffffffffffff1660001b9050919050565b6000611b6a611b6533611b34565b610f42565b611bdc576040517f08c379a00000000000000000000000000000000000000000000000000000000081526004018080602001828103825260128152602001807f4e6f7420612073656372657461726961742e000000000000000000000000000081525060200191505060405180910390fd5b81611bf8600a6000838152602001908152602001600020612fc7565b611c6a576040517f08c379a00000000000000000000000000000000000000000000000000000000081526004018080602001828103825260168152602001807f546865736973206e6f7420726567697374657265642e0000000000000000000081525060200191505060405180910390fd5b600a600084815260200190815260200160002060000154611c92611c8d33611b34565b612478565b14611ce8576040517f08c379a00000000000000000000000000000000000000000000000000000000081526004018080602001828103825260418152602001806138346041913960600191505060405180910390fd5b611d03600a6000858152602001908152602001600020613180565b60076000600a60008681526020019081526020016000206001015481526020019081526020016000206001016000815480929190600101919050555060076000600a60008681526020019081526020016000206002015481526020019081526020016000206001016000815480929190600101919050555060076000600a600086815260200190815260200160002060030154815260200190815260200160002060010160008154809291906001019190505550827f155be09affe6d4bfc927c165d54a3281ceb37c0bfe544688a1fe48699e7f04536040518080602001828103825260098152602001807f46696e616c697a6564000000000000000000000000000000000000000000000081525060200191505060405180910390a26001915050919050565b600081611e48600a6000838152602001908152602001600020612fc7565b611eba576040517f08c379a00000000000000000000000000000000000000000000000000000000081526004018080602001828103825260168152602001807f546865736973206e6f7420726567697374657265642e0000000000000000000081525060200191505060405180910390fd5b611ed5600a6000858152602001908152602001600020613207565b915050919050565b6060611ee882611ae1565b611f905742600a600084815260200190815260200160002060060154600a6000858152602001908152602001600020600501540110611f8f576040517f08c379a000000000000000000000000000000000000000000000000000000000815260040180806020018281038252601f8152602001807f456d626172676f20706572696f64206973206e6f74206f766572207965742e0081525060200191505060405180910390fd5b5b600a60008381526020019081526020016000206007018054600181600116156101000203166002900480601f01602080910402602001604051908101604052809291908181526020018280546001816001161561010002031660029004801561203a5780601f1061200f5761010080835404028352916020019161203a565b820191906000526020600020905b81548152906001019060200180831161201d57829003601f168201915b50505050509050919050565b6000612050610eff565b73ffffffffffffffffffffffffffffffffffffffff163373ffffffffffffffffffffffffffffffffffffffff1614905090565b600060418251146120fc576040517f08c379a00000000000000000000000000000000000000000000000000000000081526004018080602001828103825260168152602001807f5265717569726520636f7272656374206c656e6774680000000000000000000081525060200191505060405180910390fd5b60008060006020850151925060408501519150606085015160001a9050601b8160ff16101561212c57601b810190505b601b8160ff1614806121415750601c8160ff16145b6121b3576040517f08c379a000000000000000000000000000000000000000000000000000000000815260040180806020018281038252601b8152602001807f5369676e61747572652076657273696f6e206e6f74206d61746368000000000081525060200191505060405180910390fd5b6121bf86828585613317565b935050505092915050565b600060606000806121da85612c24565b61222f576040517f08c379a00000000000000000000000000000000000000000000000000000000081526004018080602001828103825260268152602001806137d36026913960400191505060405180910390fd5b600060026000878152602001908152602001600020905080600001548160010182600201548360030154828054600181600116156101000203166002900480601f0160208091040260200160405190810160405280929190818152602001828054600181600116156101000203166002900480156122ee5780601f106122c3576101008083540402835291602001916122ee565b820191906000526020600020905b8154815290600101906020018083116122d157829003601f168201915b505050505092509450945094509450509193509193565b606061231082612c24565b612365576040517f08c379a00000000000000000000000000000000000000000000000000000000081526004018080602001828103825260268152602001806137d36026913960400191505060405180910390fd5b60026000838152602001908152602001600020600201546040519080825280602002602001820160405280156123aa5781602001602082028038833980820191505090505b509050600080600090505b825181101561247157600060026000868152602001908152602001600020600401600060018401815260200190815260200160002054905060011515600560006004600085815260200190815260200160002054815260200190815260200160002060000160009054906101000a900460ff161515141561246357600460008281526020019081526020016000205484848060010195508151811061245657fe5b6020026020010181815250505b5080806001019150506123b5565b5050919050565b600061248382610f42565b6124f5576040517f08c379a00000000000000000000000000000000000000000000000000000000081526004018080602001828103825260128152602001807f4e6f7420612073656372657461726961742e000000000000000000000000000081525060200191505060405180910390fd5b6001600060056000858152602001908152602001600020600201548152602001908152602001600020549050919050565b600061255561253433611b34565b600a600085815260200190815260200160002061344a90919063ffffffff16565b9050919050565b60606125678261298e565b6125d9576040517f08c379a000000000000000000000000000000000000000000000000000000000815260040180806020018281038252601b8152602001807f5374616b65686f6c646572206e6f7420726567697374657265642e000000000081525060200191505060405180910390fd5b600060076000848152602001908152602001600020905080600101548160000154036040519080825280602002602001820160405280156126295781602001602082028038833980820191505090505b5091506000806000600190505b60018551018110156126c05783600201600082815260200190815260200160002054915060006009600084815260200190815260200160002054905061268d600a6000838152602001908152602001600020613477565b156126b257808685806001019650815181106126a557fe5b6020026020010181815250505b508080600101915050612636565b50505050919050565b6126da6126d533611b34565b610f42565b61274c576040517f08c379a00000000000000000000000000000000000000000000000000000000081526004018080602001828103825260128152602001807f4e6f7420612073656372657461726961742e000000000000000000000000000081525060200191505060405180910390fd5b600061275733611b34565b9050600061276482612478565b90506000600260008381526020019081526020016000209050600082848c8c8c8c8c8c8c604051602001808a81526020018981526020018881526020018781526020018681526020018585808284378083019250505083838082843780830192505050995050505050505050505060405160208183030381529060405280519060200120905082600a60008381526020019081526020016000206000018190555083600a6000838152602001908152602001600020600101819055508a600a60008381526020019081526020016000206002018190555089600a60008381526020019081526020016000206003018190555088600a600083815260200190815260200160002060040181905550806009600060086000815460010191905081905581526020019081526020016000208190555060085482600501600084600301600081546001019190508190558152602001908152602001600020819055507f99fe496673a9d0f8f5a2298e40254c1c9a6df90b0aed34f17192aa762d5c0ba18260030154600854604051808381526020018281526020019250505060405180910390a161292e60405180606001604052808681526020018d81526020018c8152506008546134aa565b83837f79797bac086296b11cc5bbe11f3d51a45c9d87c9ea5e7ce8b9441748e9de34598d8d856008546040518085815260200184815260200183815260200182815260200194505050505060405180910390a35050505050505050505050565b6000806007600084815260200190815260200160002060000154119050919050565b6000846129ce600a6000838152602001908152602001600020612fc7565b612a40576040517f08c379a00000000000000000000000000000000000000000000000000000000081526004018080602001828103825260168152602001807f546865736973206e6f7420726567697374657265642e0000000000000000000081525060200191505060405180910390fd5b60016002811115612a4d57fe5b600a600088815260200190815260200160002060080160009054906101000a900460ff166002811115612a7c57fe5b14612aef576040517f08c379a000000000000000000000000000000000000000000000000000000000815260040180806020018281038252601c8152602001807f546865736973206973206e6f74207965742066696e616c697a65642e0000000081525060200191505060405180910390fd5b600a600087815260200190815260200160002060010154612b5c612b578787878080601f016020809104026020016040519081016040528093929190818152602001838380828437600081840152601f19601f82011690508083019250505050505050612083565b611b34565b14915050949350505050565b600080600083612b89600a6000838152602001908152602001600020612fc7565b612bfb576040517f08c379a00000000000000000000000000000000000000000000000000000000081526004018080602001828103825260168152602001807f546865736973206e6f7420726567697374657265642e0000000000000000000081525060200191505060405180910390fd5b612c16600a6000878152602001908152602001600020613576565b935093509350509193909250565b6000806002600084815260200190815260200160002060000154119050919050565b612c57612c5233611b34565b612c24565b612cc9576040517f08c379a000000000000000000000000000000000000000000000000000000000815260040180806020018281038252601b8152602001807f4465706172746d656e7420646f6573206e6f74206578697374732e000000000081525060200191505060405180910390fd5b612cd281610f42565b15612d28576040517f08c379a00000000000000000000000000000000000000000000000000000000081526004018080602001828103825260238152602001806139096023913960400191505060405180910390fd5b600060026000612d3733611b34565b8152602001908152602001600020905060006003600081546001019190508190559050612d6261370a565b604051806060016040528060011515815260200183815260200184600001548152509050806005600086815260200190815260200160002060008201518160000160006101000a81548160ff0219169083151502179055506020820151816001015560408201518160020155905050836004600084815260200190815260200160002081905550818360040160008560020160008154600101919050819055815260200190815260200160002081905550836001600085600001548152602001908152602001600020547faee7188c24862abcb0eb8194e39d0ae2f3a3a7df1a45c8d3aaf69e2101ffc554846040518082815260200191505060405180910390a350505050565b612e71612046565b612ee3576040517f08c379a00000000000000000000000000000000000000000000000000000000081526004018080602001828103825260168152602001807f55736572206973206e6f7420746865206f776e65722e0000000000000000000081525060200191505060405180910390fd5b600073ffffffffffffffffffffffffffffffffffffffff168173ffffffffffffffffffffffffffffffffffffffff161415612f1d57600080fd5b7f5a3e66efaa1e445ebd894728a69d6959842ea1e97bd79b892797106e270efcd9612f46610eff565b82604051808373ffffffffffffffffffffffffffffffffffffffff1673ffffffffffffffffffffffffffffffffffffffff1681526020018273ffffffffffffffffffffffffffffffffffffffff1673ffffffffffffffffffffffffffffffffffffffff1681526020019250505060405180910390a1612fc4816135fd565b50565b6000808260040154119050919050565b612fe083613477565b613035576040517f08c379a000000000000000000000000000000000000000000000000000000000815260040180806020018281038252602c815260200180613875602c913960400191505060405180910390fd5b8083600901600084815260200190815260200160002060006101000a81548160ff021916908315150217905550505050565b6000613071610ed9565b90508173ffffffffffffffffffffffffffffffffffffffff168173ffffffffffffffffffffffffffffffffffffffff1614156130ac57600080fd5b6130b58261363e565b8173ffffffffffffffffffffffffffffffffffffffff167f0657c43252e21d6584c7ee97ba6b914710dc0b29771330a92acb3d09d57c5cf360405160405180910390a25050565b8284600501819055508184600601819055508084600701908051906020019061312692919061372d565b5060008460080160006101000a81548160ff0219169083600281111561314857fe5b021790555050505050565b6000826001015482148061316a5750826002015482145b806131785750826003015482145b905092915050565b61318981613207565b6131de576040517f08c379a000000000000000000000000000000000000000000000000000000000815260040180806020018281038252603b8152602001806137f9603b913960400191505060405180910390fd5b60018160080160006101000a81548160ff021916908360028111156131ff57fe5b021790555050565b600061321282613477565b613267576040517f08c379a000000000000000000000000000000000000000000000000000000000815260040180806020018281038252602c815260200180613875602c913960400191505060405180910390fd5b8160090160008360010154815260200190815260200160002060009054906101000a900460ff1680156132bd57508160090160008360020154815260200190815260200160002060009054906101000a900460ff165b80156132ec57508160090160008360030154815260200190815260200160002060009054906101000a900460ff165b80156133105750600082600701805460018160011615610100020316600290049050115b9050919050565b600060606040518060400160405280601c81526020017f19457468657265756d205369676e6564204d6573736167653a0a3332000000008152509050600081876040516020018083805190602001908083835b6020831061338d578051825260208201915060208101905060208303925061336a565b6001836020036101000a03801982511681845116808217855250505050505090500182815260200192505050604051602081830303815290604052805190602001209050600060018288888860405160008152602001604052604051808581526020018460ff1660ff1681526020018381526020018281526020019450505050506020604051602081039080840390855afa158015613430573d6000803e3d6000fd5b505050602060405103519050809350505050949350505050565b600082600901600083815260200190815260200160002060009054906101000a900460ff16905092915050565b600080600281111561348557fe5b8260080160009054906101000a900460ff1660028111156134a257fe5b149050919050565b60008090505b6003811015613571576000600760008584600381106134cb57fe5b6020020151815260200190815260200160002090508060000160008154809291906001019190505550828160020160008360000154815260200190815260200160002081905550600960008481526020019081526020016000205484836003811061353257fe5b60200201517fb55b411ededea41c676ff74195f7b842c74c62af15c66c3722b1c070c23fa4bb60405160405180910390a35080806001019150506134b0565b505050565b60008060008360090160008560010154815260200190815260200160002060009054906101000a900460ff168460090160008660020154815260200190815260200160002060009054906101000a900460ff168560090160008760030154815260200190815260200160002060009054906101000a900460ff169250925092509193909250565b600060405180807f5468657369734d616e616765722e636f6e74726163742e6f776e657200000000815250601c019050604051809103902090508181555050565b600060405180806138e7602291396022019050604051809103902090508181555050565b6040518060800160405280600081526020016060815260200160008152602001600081525090565b828054600181600116156101000203166002900490600052602060002090601f016020900481019282601f106136cb57805160ff19168380011785556136f9565b828001600101855582156136f9579182015b828111156136f85782518255916020019190600101906136dd565b5b50905061370691906137ad565b5090565b604051806060016040528060001515815260200160008152602001600081525090565b828054600181600116156101000203166002900490600052602060002090601f016020900481019282601f1061376e57805160ff191683800117855561379c565b8280016001018555821561379c579182015b8281111561379b578251825591602001919060010190613780565b5b5090506137a991906137ad565b5090565b6137cf91905b808211156137cb5760008160009055506001016137b3565b5090565b9056fe4164647265737320646f6573206e6f74206d6174636820616e79206465706172746d656e742e536f6d65207065726d697373696f6e7320617265207374696c6c206d697373696e6720746f2066696e616c697a652074686973207468657369732e5365637265746172696174206465706172746d656e7420646f6573206e6f74206d6174636820776974682074686520746865736973206465706172746d656e742e50726f63656475726520616476616e63656d656e742068617320746f20626520696e2070726f67726573732e4465706172746d656e74206164647265737320616c726561647920696e207573652e4e6f74206120736563726574617269617420666f7220746865206465706172746d656e745468657369734d616e616765722e70726f78792e696d706c656d656e746174696f6e5365637265746172696174206164647265737320616c726561647920696e207573652e5365637265746172696174206e6f74206173736f63696174656420746f207468652063757272656e74206465706172746d656e742ea2646970667358221220f35c46ca5993a82b0dcf7a5529a180347c2f090c86ba6c1f2de95ff27df21d9064736f6c63430006010033",
  "source": "pragma solidity >=0.4.22;\r\n\r\nimport \"./Base.sol\";\r\nimport \"./OwnedUpgradeabilityProxy.sol\";\r\nimport \"./Storage.sol\";\r\nimport \"./ThesisLib.sol\";\r\n\r\ncontract ManagementConsole is Base, OwnedUpgradeabilityProxy, Storage {\r\n\r\n    using ThesisLib for ThesisLib.Thesis;\r\n\r\n    event LogCreateDepartment(bytes32 indexed department, string name, uint indexed id);\r\n    event LogCreateSecretariat(bytes32 indexed department, bytes32 indexed secretariat, uint index);\r\n    event LogCreateThesis(bytes32 indexed department, bytes32 indexed secretariat, bytes32 author,\r\n        bytes32 supervisor, bytes32 thesisHash, uint index);\r\n    event LogRemoveSecretariat(bytes32 indexed sender, bytes32 indexed secretariat);\r\n    event LogAssignTo(bytes32 indexed _stakeholder, bytes32 indexed _thesisHash);\r\n    event LogUpdateThesis(bytes32 indexed thesis, string action);\r\n    event LogFinalizeThesis(bytes32 indexed thesis/*, bytes indexed signature*/, string action);\r\n    event LogUpdateDepartmentNewThesis(uint departmentThesisCount, uint thesisIndex);\r\n\r\n    function createDepartment(bytes32 _address, string calldata _name) external onlyProxyOwner {\r\n        require(departmentMap[_address].id == 0,\"Department address already in use.\");\r\n\r\n        Department memory department = Department(++departmentCounter,_name, 0, 0);\r\n        departmentMap[_address] = department;\r\n        departmentIndex[department.id] = _address;\r\n        emit LogCreateDepartment(_address, _name, departmentMap[_address].id);\r\n    }\r\n\r\n    /**\r\n    *   @dev Every secretariat can be assigned to a single department.\r\n    *       If a secretariat was previously deleted from a department, the new counter\r\n    *       is linked to the secretariat index.\r\n    */\r\n\r\n    function createSecretariat(bytes32 _address) external onlyDepartment {\r\n        require(!isSecretariat(_address), \"Secretariat address already in use.\");\r\n\r\n        Department storage department = departmentMap[addressToBytes32(msg.sender)];\r\n        uint index = ++secretariatCounter;\r\n        Secretariat memory secretariat = Secretariat(true, index, department.id);\r\n        secretariatMap[_address] = secretariat;\r\n        secretariatIndex[index] = _address;\r\n        department.secretariatCounterToIndex[++department.secretariatCounter] = index;\r\n        emit LogCreateSecretariat(departmentIndex[department.id], _address, index);\r\n    }\r\n\r\n    /**\r\n    * @dev  Does not remove the department ID to  the secretariat from the department counter,\r\n    *       because that would mess up the index.\r\n     */\r\n\r\n    function removeSecretariat(bytes32 _secretariat) external onlyDepartment {\r\n        require(isSecretariat(_secretariat) && departmentIndex[secretariatMap[_secretariat].department] == addressToBytes32(msg.sender),\r\n            \"Secretariat not associated to the current department.\");\r\n\r\n        Department storage department = departmentMap[addressToBytes32(msg.sender)];\r\n        Secretariat storage secretariat = secretariatMap[_secretariat];\r\n        secretariat.active = false;\r\n        delete department.secretariatCounterToIndex[secretariat.id];\r\n        emit LogRemoveSecretariat(addressToBytes32(msg.sender), _secretariat);\r\n    }\r\n\r\n    function getDepartmentList() external view returns(bytes32[] memory departments) {\r\n        departments = new bytes32[](departmentCounter);\r\n        for(uint i = 0; i < departmentCounter; i++) {\r\n            departments[i] = departmentIndex[i + 1];\r\n        }\r\n    }\r\n\r\n    function getDepartmentDetails(bytes32 _department) external view returns\r\n        (uint departmentID, string memory departmentName, uint secretariatCounter, uint thesisCounter) {\r\n        require(isDepartment(_department), \"Address does not match any department.\");\r\n        Department storage department = departmentMap[_department];\r\n        return (department.id, department.name, department.secretariatCounter, department.thesisCounter);\r\n    }\r\n\r\n    function getSecretariatList(bytes32 _department) external view returns(bytes32[] memory secretariats) {\r\n        require(isDepartment(_department), \"Address does not match any department.\");\r\n\r\n        secretariats = new bytes32[](departmentMap[_department].secretariatCounter);\r\n        uint counter;\r\n        for(uint i = 0; i < secretariats.length; i++) {\r\n            uint pointer = departmentMap[_department].secretariatCounterToIndex[i+1];\r\n            if(secretariatMap[secretariatIndex[pointer]].active == true){\r\n                secretariats[counter++] = secretariatIndex[pointer];\r\n            }\r\n        }\r\n    }\r\n\r\n    function createThesis(bytes32 _author, bytes32 _supervisor,\r\n        uint _registrationDate, string calldata _title, string calldata _course)\r\n        external onlySecretariat {\r\n\r\n        bytes32 secretariat = addressToBytes32(msg.sender);\r\n        bytes32 departmentAddress = getDepartmentOfSecretariat(secretariat);\r\n        Department storage department = departmentMap[departmentAddress];\r\n\r\n        bytes32 thesisHash = keccak256(abi.encodePacked(departmentAddress, secretariat,\r\n            _author, _supervisor, _registrationDate, _title, _course));\r\n\r\n        thesisMap[thesisHash].department = departmentAddress;\r\n        thesisMap[thesisHash].secretariat = secretariat;\r\n        thesisMap[thesisHash].author = _author;\r\n        thesisMap[thesisHash].supervisor = _supervisor;\r\n        thesisMap[thesisHash].registrationDate = _registrationDate;\r\n        thesisIndex[++thesisCounter] = thesisHash;\r\n\r\n        department.thesisCounterToIndex[++department.thesisCounter] = thesisCounter;\r\n        emit LogUpdateDepartmentNewThesis(department.thesisCounter, thesisCounter);\r\n        assignTo([secretariat, _author, _supervisor], thesisCounter);\r\n        emit LogCreateThesis(departmentAddress, secretariat, _author, _supervisor, thesisHash, thesisCounter);\r\n    }\r\n\r\n    function assignTo(bytes32[3] memory _stakeholder, uint _thesisIndex) private {\r\n        // require(checkUniqueness(_stakeholder), \"Stakeholders addresses must be unique.\");\r\n        for(uint i = 0; i < _stakeholder.length; i++) {\r\n            Stakeholder storage stakeholder = stakeholderMap[_stakeholder[i]];\r\n            stakeholder.thesisCounter++;\r\n            stakeholder.thesisCounterToIndex[stakeholder.thesisCounter] = _thesisIndex;\r\n            emit LogAssignTo(_stakeholder[i], thesisIndex[_thesisIndex]);\r\n        }\r\n    }\r\n\r\n    function setThesisArguments(bytes32 _thesisHash, uint _publicationDate, uint _embargoPeriod, bytes calldata _fileUrl)\r\n        external onlySecretariat thesisExists(_thesisHash) {\r\n\r\n        require(getDepartmentOfSecretariat(addressToBytes32(msg.sender)) != '0x0', \"Not a secretariat for the department\");\r\n        thesisMap[_thesisHash].setArguments(_publicationDate, _embargoPeriod, _fileUrl);\r\n        emit LogUpdateThesis((addressToBytes32(address(this))), \"setArguments\");\r\n    }\r\n\r\n    function getDepartmentOfSecretariat(bytes32 _secretariat) public view returns(bytes32 department) {\r\n        require(isSecretariat(_secretariat),\"Not a secretariat.\");\r\n        return departmentIndex[secretariatMap[_secretariat].department];\r\n    }\r\n\r\n    function setPermission(bytes32 _thesisHash, bool _permission) external thesisExists(_thesisHash) onlyStakeholder(_thesisHash) {\r\n        bytes32 sender = addressToBytes32(msg.sender);\r\n        thesisMap[_thesisHash].setPermission(sender, _permission);\r\n        emit LogUpdateThesis(sender, \"setPermission\");\r\n    }\r\n\r\n    function getThesisPermissionStatus(bytes32 _thesisHash) external view thesisExists(_thesisHash)\r\n        returns (bool secretariat, bool author, bool supervisor) {\r\n\r\n        return thesisMap[_thesisHash].getPermissionStatus();\r\n    }\r\n\r\n    function getThesisPermission(bytes32 _thesisHash) external view returns(bool) {\r\n        return thesisMap[_thesisHash].getPermission(addressToBytes32(msg.sender));\r\n    }\r\n\r\n    function thesisCanBeFinalized(bytes32 _thesisHash) external thesisExists(_thesisHash) view returns(bool) {\r\n        return thesisMap[_thesisHash].canBeFinalized();\r\n    }\r\n\r\n    function finalizeThesis(bytes32 _thesisHash) external onlySecretariat thesisExists(_thesisHash) returns(bool success) {\r\n        require(getDepartmentOfSecretariat(addressToBytes32(msg.sender)) == thesisMap[_thesisHash].department,\r\n            \"Secretariat department does not match with the thesis department.\");\r\n        thesisMap[_thesisHash].finalize();\r\n        stakeholderMap[thesisMap[_thesisHash].secretariat].thesisCompleted++;\r\n        stakeholderMap[thesisMap[_thesisHash].author].thesisCompleted++;\r\n        stakeholderMap[thesisMap[_thesisHash].supervisor].thesisCompleted++;\r\n        emit LogFinalizeThesis(_thesisHash, \"Finalized\");\r\n        return true;\r\n    }\r\n\r\n    function getFileUrl(bytes32 _thesisHash) external view returns(bytes memory) {\r\n        if(!isStakeholderOfThesis(_thesisHash)) {\r\n            require((thesisMap[_thesisHash].publicationDate + thesisMap[_thesisHash].embargoPeriod) < now, \"Embargo period is not over yet.\");\r\n        }\r\n        return thesisMap[_thesisHash].fileUrl;\r\n    }\r\n\r\n    function verifySecretariatSignature(bytes32 _thesisHash, bytes32 _messageHash, bytes calldata _signature)\r\n        external thesisExists(_thesisHash) view returns(bool) {\r\n\r\n        require(thesisMap[_thesisHash].status == ThesisLib.Status.COMPLETED, \"Thesis is not yet finalized.\");\r\n        return addressToBytes32(recoverSigner(_messageHash, _signature)) == thesisMap[_thesisHash].secretariat;\r\n    }\r\n\r\n    /**\r\n    * @dev Recover signer address from a message by using their signature\r\n    * @dev hash bytes32 message, the hash is the signed message. What is recovered is the signer address.\r\n    * @dev sig bytes signature, the signature is generated using web3.eth.sign(). Inclusive \"0x...\"\r\n    */\r\n\r\n    function recoverSigner(bytes32 _messageHash, bytes memory _signature) public pure returns (address) {\r\n        require(_signature.length == 65, \"Require correct length\");\r\n\r\n        bytes32 r;\r\n        bytes32 s;\r\n        uint8 v;\r\n        // Divide the signature in r, s and v variables\r\n        assembly {\r\n            // first 32 bytes, after the length prefix\r\n            r := mload(add(_signature, 32))\r\n            // second 32 bytes\r\n            s := mload(add(_signature, 64))\r\n            // final byte (first byte of the next 32 bytes)\r\n            v := byte(0, mload(add(_signature, 96)))\r\n        }\r\n        // Version of signature should be 27 or 28, but 0 and 1 are also possible versions\r\n        if (v < 27) {\r\n            v += 27;\r\n        }\r\n        require(v == 27 || v == 28, \"Signature version not match\");\r\n        return recoverSigner2(_messageHash, v, r, s);\r\n    }\r\n\r\n    function recoverSigner2(bytes32 _messageHash, uint8 v, bytes32 r, bytes32 s) private pure returns (address) {\r\n        bytes memory prefix = \"\\x19Ethereum Signed Message:\\n32\";\r\n        bytes32 prefixedHash = keccak256(abi.encodePacked(prefix, _messageHash));\r\n        address addr = ecrecover(prefixedHash, v, r, s);\r\n\r\n        return addr;\r\n    }\r\n\r\n    function getThesisOfDepartment(bytes32 _department) external view returns(bytes32[] memory thesisList) {\r\n        require(isDepartment(_department), \"Address does not match any department.\");\r\n        thesisList = new bytes32[](departmentMap[_department].thesisCounter);\r\n        for(uint i = 0; i < thesisList.length; i++) {\r\n            uint index = departmentMap[_department].thesisCounterToIndex[i];\r\n            thesisList[i] = thesisIndex[index];\r\n        }\r\n    }\r\n\r\n    function getThesis(bytes32 _thesisHash) public view thesisExists(_thesisHash)\r\n        returns(bytes32 department, bytes32 secretariat, bytes32 author, bytes32 supervisor,\r\n            uint registrationDate, uint publicationDate) {\r\n\r\n        ThesisLib.Thesis storage t = thesisMap[_thesisHash];\r\n\r\n        return(t.department, t.secretariat, t.author, t.supervisor, t.registrationDate,\r\n            t.publicationDate);\r\n    }\r\n\r\n    function getThesisOfStakeholder(bytes32 _stakeholder) external view returns(bytes32[] memory thesisList) {\r\n        require(isStakeholder(_stakeholder), \"Stakeholder not registered.\");\r\n        Stakeholder storage stakeholder = stakeholderMap[_stakeholder];\r\n        thesisList = new bytes32[](stakeholder.thesisCounter - stakeholder.thesisCompleted);\r\n        uint counter;\r\n        uint index;\r\n        for(uint i = 1; i < thesisList.length + 1; i++) {\r\n            index = stakeholder.thesisCounterToIndex[i];\r\n            bytes32 t_address = thesisIndex[index];\r\n            if(thesisMap[t_address].isActive()) {\r\n                thesisList[counter++] = t_address;\r\n            }\r\n        }\r\n    }\r\n\r\n    modifier thesisExists(bytes32 _thesisHash) {\r\n        require(thesisMap[_thesisHash].isRegistered(), \"Thesis not registered.\");\r\n        _;\r\n    }\r\n\r\n    modifier onlyStakeholder(bytes32 _thesisHash) {\r\n        require(isStakeholderOfThesis(_thesisHash), \"User is not a valid stakeholder.\");\r\n        _;\r\n    }\r\n\r\n    function isStakeholderOfThesis(bytes32 _thesisHash) public view returns(bool) {\r\n        bytes32 sender = addressToBytes32(msg.sender);\r\n        return (isStakeholder(sender) && thesisMap[_thesisHash].isStakeholder(sender) == true);\r\n    }\r\n\r\n    function isStakeholder(bytes32 _sender) public view returns(bool) {\r\n        return stakeholderMap[_sender].thesisCounter > 0;\r\n    }\r\n\r\n    modifier onlyDepartment() {\r\n        require(isDepartment(addressToBytes32(msg.sender)), \"Department does not exists.\");\r\n        _;\r\n    }\r\n\r\n    function isDepartment(bytes32 _department) public view returns(bool) {\r\n        return departmentMap[_department].id > 0;\r\n    }\r\n\r\n    modifier onlySecretariat() {\r\n        require(isSecretariat(addressToBytes32(msg.sender)), \"Not a secretariat.\");\r\n        _;\r\n    }\r\n\r\n    function isSecretariat(bytes32 _secretariat) public view returns(bool) {\r\n        return secretariatMap[_secretariat].active == true;\r\n    }\r\n}",
  "sourcePath": "E:\\Dev\\pmDapp\\truffle\\contracts\\ManagementConsole.sol",
  "compiler": {
    "name": "solc",
    "version": "0.6.1+commit.e6f7d5a4.Emscripten.clang"
  },
  "schemaVersion": "3.1.0",
  "updatedAt": "2020-05-22T18:06:19.092Z",
  "networkType": "ethereum",
  "devdoc": {
    "methods": {
      "createSecretariat(bytes32)": {
        "details": "Every secretariat can be assigned to a single department.      If a secretariat was previously deleted from a department, the new counter      is linked to the secretariat index."
      },
      "proxyOwner()": {
        "details": "Tells the address of the owner return the address of the owner"
      },
      "recoverSigner(bytes32,bytes)": {
        "details": "Recover signer address from a message by using their signaturehash bytes32 message, the hash is the signed message. What is recovered is the signer address.sig bytes signature, the signature is generated using web3.eth.sign(). Inclusive \"0x...\""
      },
      "removeSecretariat(bytes32)": {
        "details": "Does not remove the department ID to  the secretariat from the department counter,      because that would mess up the index."
      },
      "transferProxyOwnership(address)": {
        "details": "Allows the current owner to transfer control of the contract to a newOwner.",
        "params": {
          "newOwner": "The address to transfer ownership to."
        }
      },
      "upgradeTo(address)": {
        "details": "Allows the proxy owner to upgrade the current version of the proxy.",
        "params": {
          "implementation": "representing the address of the new implementation to be set."
        }
      }
    }
  },
  "userdoc": {
    "methods": {}
  }
}