{
  "contractName": "OwnedUpgradeabilityProxy",
  "abi": [
    {
      "inputs": [],
      "stateMutability": "nonpayable",
      "type": "constructor"
    },
    {
      "anonymous": false,
      "inputs": [
        {
          "indexed": true,
          "internalType": "address",
          "name": "implementation",
          "type": "address"
        }
      ],
      "name": "LogUpgrade",
      "type": "event"
    },
    {
      "anonymous": false,
      "inputs": [
        {
          "indexed": false,
          "internalType": "address",
          "name": "previousOwner",
          "type": "address"
        },
        {
          "indexed": false,
          "internalType": "address",
          "name": "newOwner",
          "type": "address"
        }
      ],
      "name": "ProxyOwnershipTransferred",
      "type": "event"
    },
    {
      "stateMutability": "nonpayable",
      "type": "fallback"
    },
    {
      "inputs": [],
      "name": "implementation",
      "outputs": [
        {
          "internalType": "address",
          "name": "_implementation",
          "type": "address"
        }
      ],
      "stateMutability": "view",
      "type": "function",
      "constant": true
    },
    {
      "inputs": [],
      "name": "isOwner",
      "outputs": [
        {
          "internalType": "bool",
          "name": "",
          "type": "bool"
        }
      ],
      "stateMutability": "view",
      "type": "function",
      "constant": true
    },
    {
      "inputs": [],
      "name": "proxyOwner",
      "outputs": [
        {
          "internalType": "address",
          "name": "owner",
          "type": "address"
        }
      ],
      "stateMutability": "view",
      "type": "function",
      "constant": true
    },
    {
      "inputs": [
        {
          "internalType": "address",
          "name": "newOwner",
          "type": "address"
        }
      ],
      "name": "transferProxyOwnership",
      "outputs": [],
      "stateMutability": "nonpayable",
      "type": "function"
    },
    {
      "inputs": [
        {
          "internalType": "address",
          "name": "implementation",
          "type": "address"
        }
      ],
      "name": "upgradeTo",
      "outputs": [],
      "stateMutability": "nonpayable",
      "type": "function"
    }
  ],
  "bytecode": "0x608060405234801561001057600080fd5b506100203361002560201b60201c565b610066565b600060405180807f5468657369734d616e616765722e636f6e74726163742e6f776e657200000000815250601c019050604051809103902090508181555050565b6105e3806100756000396000f3fe608060405234801561001057600080fd5b506004361061005b5760003560e01c8063025313a2146100c95780633659cfe6146101135780635c60da1b146101575780638f32d59b146101a1578063f1739cae146101c35761005c565b5b6000610066610207565b9050600073ffffffffffffffffffffffffffffffffffffffff168173ffffffffffffffffffffffffffffffffffffffff1614156100a257600080fd5b60405136600082376000803683855af43d806000843e81600081146100c5578184f35b8184fd5b6100d161022d565b604051808273ffffffffffffffffffffffffffffffffffffffff1673ffffffffffffffffffffffffffffffffffffffff16815260200191505060405180910390f35b6101556004803603602081101561012957600080fd5b81019080803573ffffffffffffffffffffffffffffffffffffffff169060200190929190505050610270565b005b61015f610207565b604051808273ffffffffffffffffffffffffffffffffffffffff1673ffffffffffffffffffffffffffffffffffffffff16815260200191505060405180910390f35b6101a96102f6565b604051808215151515815260200191505060405180910390f35b610205600480360360208110156101d957600080fd5b81019080803573ffffffffffffffffffffffffffffffffffffffff169060200190929190505050610333565b005b600080604051808061058c60229139602201905060405180910390209050805491505090565b60008060405180807f5468657369734d616e616765722e636f6e74726163742e6f776e657200000000815250601c01905060405180910390209050805491505090565b6102786102f6565b6102ea576040517f08c379a00000000000000000000000000000000000000000000000000000000081526004018080602001828103825260168152602001807f55736572206973206e6f7420746865206f776e65722e0000000000000000000081525060200191505060405180910390fd5b6102f381610491565b50565b600061030061022d565b73ffffffffffffffffffffffffffffffffffffffff163373ffffffffffffffffffffffffffffffffffffffff1614905090565b61033b6102f6565b6103ad576040517f08c379a00000000000000000000000000000000000000000000000000000000081526004018080602001828103825260168152602001807f55736572206973206e6f7420746865206f776e65722e0000000000000000000081525060200191505060405180910390fd5b600073ffffffffffffffffffffffffffffffffffffffff168173ffffffffffffffffffffffffffffffffffffffff1614156103e757600080fd5b7f5a3e66efaa1e445ebd894728a69d6959842ea1e97bd79b892797106e270efcd961041061022d565b82604051808373ffffffffffffffffffffffffffffffffffffffff1673ffffffffffffffffffffffffffffffffffffffff1681526020018273ffffffffffffffffffffffffffffffffffffffff1673ffffffffffffffffffffffffffffffffffffffff1681526020019250505060405180910390a161048e81610526565b50565b600061049b610207565b90508173ffffffffffffffffffffffffffffffffffffffff168173ffffffffffffffffffffffffffffffffffffffff1614156104d657600080fd5b6104df82610567565b8173ffffffffffffffffffffffffffffffffffffffff167f0657c43252e21d6584c7ee97ba6b914710dc0b29771330a92acb3d09d57c5cf360405160405180910390a25050565b600060405180807f5468657369734d616e616765722e636f6e74726163742e6f776e657200000000815250601c019050604051809103902090508181555050565b6000604051808061058c60229139602201905060405180910390209050818155505056fe5468657369734d616e616765722e70726f78792e696d706c656d656e746174696f6ea2646970667358221220c6f5740aaf2782202ebc3e92e516b171408ad311d5fb0e868b21c23e11a5c9e464736f6c63430006010033",
  "source": "pragma solidity >=0.4.21;\r\n\r\nimport './UpgradeabilityProxy.sol';\r\n\r\n/**\r\n * @title OwnedUpgradeabilityProxy\r\n * @dev This contract combines an upgradeability proxy with basic authorization control functionalities\r\n */\r\ncontract OwnedUpgradeabilityProxy is UpgradeabilityProxy {\r\n  /**\r\n  * @dev Event to show ownership has been transferred\r\n  * @param previousOwner representing the address of the previous owner\r\n  * @param newOwner representing the address of the new owner\r\n  */\r\n  event ProxyOwnershipTransferred(address previousOwner, address newOwner);\r\n\r\n  // Storage position of the owner of the contract\r\n  bytes32 private constant proxyOwnerPosition = keccak256(\"ThesisManager.contract.owner\");\r\n\r\n  /**\r\n  * @dev the constructor sets the original owner of the contract to the sender account.\r\n  */\r\n  constructor() public {\r\n    setUpgradeabilityOwner(msg.sender);\r\n  }\r\n\r\n  /**\r\n  * @dev Throws if called by any account other than the owner.\r\n  */\r\n  modifier onlyProxyOwner() {\r\n    require(isOwner(),\"User is not the owner.\");\r\n    _;\r\n  }\r\n\r\n  function isOwner() public view returns(bool) {\r\n    return msg.sender == proxyOwner();\r\n  }\r\n\r\n  /**\r\n   * @dev Tells the address of the owner\r\n   * return the address of the owner\r\n   */\r\n  function proxyOwner() public view returns (address owner) {\r\n    bytes32 position = proxyOwnerPosition;\r\n    assembly {\r\n      owner := sload(position)\r\n    }\r\n  }\r\n\r\n  /**\r\n   * @dev Sets the address of the owner\r\n   */\r\n  function setUpgradeabilityOwner(address newProxyOwner) internal {\r\n    bytes32 position = proxyOwnerPosition;\r\n    assembly {\r\n      sstore(position, newProxyOwner)\r\n    }\r\n  }\r\n\r\n  /**\r\n   * @dev Allows the current owner to transfer control of the contract to a newOwner.\r\n   * @param newOwner The address to transfer ownership to.\r\n   */\r\n  function transferProxyOwnership(address newOwner) public onlyProxyOwner {\r\n    require(newOwner != address(0));\r\n    emit ProxyOwnershipTransferred(proxyOwner(), newOwner);\r\n    setUpgradeabilityOwner(newOwner);\r\n  }\r\n\r\n  /**\r\n   * @dev Allows the proxy owner to upgrade the current version of the proxy.\r\n   * @param implementation representing the address of the new implementation to be set.\r\n   */\r\n  function upgradeTo(address implementation) public onlyProxyOwner {\r\n    _upgradeTo(implementation);\r\n  }\r\n\r\n  /**\r\n   * @dev Allows the proxy owner to upgrade the current version of the proxy and call the new implementation\r\n   * to initialize whatever is needed through a low level call.\r\n   * @param implementation representing the address of the new implementation to be set.\r\n   * @param data represents the msg.data to bet sent in the low level call. This parameter may include the function\r\n   * signature of the implementation to be called with the needed payload\r\n   */\r\n   /*\r\n  function upgradeToAndCall(address implementation, bytes memory data) public payable onlyProxyOwner {\r\n    upgradeTo(implementation);\r\n    require(this.call.value(msg.value)(data));\r\n  }\r\n  */\r\n}",
  "sourcePath": "E:\\Dev\\pmDapp\\truffle\\contracts\\OwnedUpgradeabilityProxy.sol",
  "compiler": {
    "name": "solc",
    "version": "0.6.1+commit.e6f7d5a4.Emscripten.clang"
  },
  "schemaVersion": "3.1.0",
  "updatedAt": "2020-05-22T18:06:19.062Z",
  "networkType": "ethereum",
  "devdoc": {
    "details": "This contract combines an upgradeability proxy with basic authorization control functionalities",
    "methods": {
      "constructor": {
        "details": "the constructor sets the original owner of the contract to the sender account."
      },
      "proxyOwner()": {
        "details": "Tells the address of the owner return the address of the owner"
      },
      "transferProxyOwnership(address)": {
        "details": "Allows the current owner to transfer control of the contract to a newOwner.",
        "params": {
          "newOwner": "The address to transfer ownership to."
        }
      },
      "upgradeTo(address)": {
        "details": "Allows the proxy owner to upgrade the current version of the proxy.",
        "params": {
          "implementation": "representing the address of the new implementation to be set."
        }
      }
    },
    "title": "OwnedUpgradeabilityProxy"
  },
  "userdoc": {
    "methods": {}
  }
}